:020000040800F2
:10000000680400209D010008750D0008710D0008AE
:10001000730D0008B9020008351200080000000046
:10002000000000000000000000000000790D000842
:10003000BB02000800000000770D00087B0D0008DF
:10004000B7010008B7010008B7010008B7010008B0
:10005000B7010008B7010008B7010008B7010008A0
:10006000B7010008B7010008B7010008B701000890
:10007000B7010008B7010008B7010008B701000880
:10008000B7010008B7010008B7010008B701000870
:10009000B7010008B7010008B7010008B701000860
:1000A000B7010008B7010008B7010008B701000850
:1000B000B7010008B7010008B7010008B701000840
:1000C000B7010008B7010008B7010008B701000830
:1000D000B7010008B7010008B7010008291200089D
:1000E000B7010008B7010008B7010008B701000810
:1000F000B7010008B7010008B7010008B701000800
:10010000B7010008B7010008B7010008B7010008EF
:10011000B7010008B7010008B7010008B7010008DF
:10012000B7010008B7010008B7010008B7010008CF
:10013000B7010008B7010008B7010008B7010008BF
:10014000B7010008B7010008B7010008B7010008AF
:10015000B7010008B7010008B7010008B70100089F
:10016000B7010008B7010008B7010008B70100088F
:10017000B7010008B7010008B7010008000000003F
:10018000B7010008B7010008DFF80CD000F082F8D2
:10019000004800479513000868040020064880477F
:1001A00006480047FEE7FEE7FEE7FEE7FEE7FEE75C
:1001B000FEE7FEE7FEE7FEE7010E00088901000802
:1001C0002DE9F05F0546002092469B46884606468C
:1001D000814640241BE0284641464746224600F01F
:1001E00048F853465A46C01A914110D31146184652
:1001F000224600F02FF82D1A67EB01084F462246E1
:100200000120002100F026F817EB00094E41201EC6
:10021000A4F10104DFDC484631462A464346BDE8E6
:10022000F09FD2B201E000F8012B491EFBD27047CB
:100230000022F6E710B513460A4604461946FFF7B2
:10024000F0FF204610BD421C10F8011B0029FBD115
:10025000801A7047202A04DB203A00FA02F10020BD
:1002600070479140C2F1200320FA03F319439040F4
:100270007047202A04DB203A21FA02F0002170475F
:1002800021FA02F3D040C2F12002914008431946FE
:1002900070470000064C074D06E0E06840F001039F
:1002A00094E8070098471034AC42F6D3FFF770FF8C
:1002B0004014000860140008FEE7704790F83510FD
:1002C000022903D08021416501207047052180F873
:1002D00035100068016821F00101016000207047BD
:1002E0002DE9F84FDFF87CB100224FF001084FF004
:1002F000030A4FF00F090BF1040E00BF0B6808FA58
:1003000002F42340A3426ED14D68022D01D0122D7C
:100310000ED1D50800EB850CDCF820505607F70EFF
:1003200009FA07F6B5430E69BE402E43CCF82060AB
:10033000066855000F790AFA05FC07F0030726EA5C
:100340000C06AF40374307604E68012E05D0022EE1
:1003500003D0112E01D0122E0ED18668CF6826EA66
:100360000C06AF40374387604668A6430C79C4F358
:100370000014944034434460C6688C6826EA0C0636
:10038000AC403443C4604C68E40065D5364C256805
:1003900045F480452560246822F0030504F4804478
:1003A0000094324C2E19D6F8084895072F0F09FAF9
:1003B00007F5AC432E4DA84201D1002524E02D4D78
:1003C000A84201D101251FE02B4DA84201D10225F1
:1003D0001AE02A4DA84201D1032515E0284DA84274
:1003E00002D1042510E037E0264DA84201D10525B1
:1003F0000AE0254DA84201D1062505E0234DA8427B
:1004000001D1072500E00825BD402543C6F808585E
:10041000DBF800405D464E689C43F60300D51C4364
:100420002C60DEF8004075464E689C43B60300D54C
:100430001C432C600B4D08352C684E689C43F6021B
:1004400000D51C432C60074D0C352C684E689C432E
:10045000B60200D51C432C60521C102AFFF44EAF8C
:10046000BDE8F88F003C01404438024000300140B4
:10047000000002400004024000080240000C02405C
:10048000001002400014024000180240001C02400C
:100490000148806870470000000000200248816821
:1004A0000278114481607047000000200B4810B5AD
:1004B000016841F400710160016841F480610160EC
:1004C000016841F480710160032000F06FF80020A2
:1004D00000F006F800F024F8002010BD003C0240B7
:1004E00070B50D4D04464FF47A712878B1FBF0F0E9
:1004F0000A490968B1FBF0F000F0E2FA48B9102CA3
:1005000007D200222146501E00F030F800206C6017
:1005100070BD012070BD0000000000200C00002014
:100520000A4808B5016841F480410160006800F4A0
:10053000804000900548001F016841F08051016033
:10054000006800F08050009008BD00004438024070
:10055000002809DB00F01F020121914040098000C2
:1005600000F1E020C0F8001170470000F0B40E4B1D
:100570001B680C46C3F30223C3F10705042D00D901
:100580000425191D072901D2002300E0DB1E0126E6
:1005900006FA05F1491E214099409E40761E1640FC
:1005A0003143F0BC00F058BE0CED00E0064900F00D
:1005B000070208684FF6FF03184040EA0220034A8A
:1005C00010430860704700000CED00E00000FA05E1
:1005D0002DE9F0470E46050065D0DFF81481D8F804
:1005E0000000F7B200F00F00B04207D288F80070A8
:1005F000D8F8000000F00F00B04254D128683D4CFC
:10060000810712D5400703D5206840F4E0502060F0
:100610002878000703D5206840F4604020602068F7
:10062000A96820F0F000084320602878C0072DD08A
:10063000304968680839012812D0022813D00328ED
:1006400011D00968890700292DDA216821F00301FA
:1006500001432160FFF71CFF814641F2883A0EE01A
:1006600009688903EFE709688901ECE7FFF710FFE4
:10067000A0EB0901514502D90320BDE8F0872068AD
:10068000696800F00C00B0EB810FEFD1D8F80010D2
:10069000404601F00F01B14207D90770006800F031
:1006A0000F00B04201D00120E7E72878400705D5C8
:1006B0002068E96820F4E0500843206028780007AB
:1006C00006D52068296920F4604040EAC100206016
:1006D00000F036F82168084AC1F30311515CC840A4
:1006E000064908600020FFF7FBFE0020C5E7000078
:1006F000003C024008380240281400080C0000208A
:100700000448054900680968044AC1F38221515C24
:10071000C84070470C000020083802403814000818
:100720000448054900680968044AC1F34231515C34
:10073000C84070470C0000200838024038140008F8
:10074000154810B5006810F00C02144813D0144975
:10075000042A0FD0082A0ED10F4C241F22682368C8
:1007600002F03F025B0207D52068C0F38810A0FBAF
:10077000010106E0084610BD2168C1F38811A1FB04
:1007800000010023FFF71CFD2168C1F30141491C52
:100790004900B0FBF1F010BD083802400024F4001D
:1007A00040787D012DE9F84F050076D02878DFF8F4
:1007B000F8B2BE4CC00749D0DBF800105846C1F370
:1007C0008101012908D00068C0F3810002280AD104
:1007D000201D0068400206D52068800336D5686871
:1007E0000028E2D032E06868B0F5803F10D0B0F564
:1007F000A02F206810D020F480302060206820F4E2
:10080000802020606868A0B1FFF742FE06460CE039
:10081000206840F48030F4E740F480202060F7E75F
:10082000FFF736FE801B642873D820688003F7D555
:100830000CE0FFF72DFE064605E000BFFFF728FE9F
:10084000801B6428F0D820688003F7D42878DFF86C
:10085000608280074FF000093ED5DBF80010584653
:1008600011F00C0F09D00068C0F3810002280BD1F1
:100870008D48001F0068400206D42068800715D507
:10088000E868012809D111E0E868B8B10120C8F88A
:100890000000FFF7FDFD064605E002E1FFF7F8FD69
:1008A000801B0228C0D820688007F7D520682969F6
:1008B00020F0F80040EAC10020600DE0C8F8009088
:1008C000FFF7E6FD064604E0FFF7E2FD801B022885
:1008D0001FD820688007F7D42878000722D5724EE9
:1008E000744869696C3671B101210160FFF7D0FD70
:1008F000074604E0FFF7CCFDC01B022809D830688A
:100900008007F7D50EE0C0F80090FFF7C1FD07465D
:1009100005E083E0FFF7BCFDC01B02287ED83068ED
:100920008007F7D42878400768D5DFF87CA1002736
:100930000AF1380ADAF80000C0000BD4DAF8001027
:1009400041F08051CAF80010DAF80000012700F0E9
:1009500080500090584E3068C00510D4306840F484
:1009600080703060FFF794FD009005E0FFF790FD88
:100970000099401A022851D83068C005F6D54A4E71
:10098000A868683601280FD00528306810D020F0FC
:1009900001003060306820F004003060A868B8B111
:1009A000FFF776FD00900FE0306840F00100F4E7BB
:1009B00040F004003060F7E7FFF76AFD0099411A44
:1009C00041F28830814264D830688007F4D50EE067
:1009D000FFF75EFD009007E0FFF75AFD0099411A0E
:1009E00041F28830814254D830688007F4D42FB166
:1009F000DAF8001021F08051CAF80010A869C0B3DD
:100A0000DBF80010C1F3810102294AD002284846D0
:100A100007D0C8F86000FFF73BFD00E039E005466D
:100A20003AE04746C8F86000FFF732FD064604E0AA
:100A3000FFF72EFD801B02282BD820688001F7D4F9
:100A4000D5E907010843A96A1C4A490802EB01419C
:100A50006A6A41EA8211084395F82C1040EA016164
:100A60001148001F016001203866FFF711FD05469F
:100A700005E014E0FFF70CFD401B022809D82068B0
:100A80008001F7D50BE000BFFFF702FD401B0228F5
:100A900002D90320BDE8F88F20688001F4D400203B
:100AA000F8E70120F6E7000008380240003802406D
:100AB00000004742800E4742007000400000FFFFE8
:100AC00010B5401EB0F1807F01D3012010BD4FF062
:100AD000E02460610F21601700F0BEFB0020A061E0
:100AE00007202061002010BD7047000070B502682B
:100AF00004461068D168536910F00F0F50D003F00E
:100B0000010501F4907635435DD0C20705D0CA05D2
:100B100003D5E26B42F00102E263420705D5DA0732
:100B200003D0E26B42F00202E263820705D5DA07E6
:100B300003D0E26B42F00402E263020705D5DA0754
:100B400003D0E26B42F00802E263E26B002A33D08A
:100B5000800604D5880602D5204600F091F9206869
:100B60004069E16BC0F38010090700D428B3204628
:100B700000F078F92068416949061AD5416921F0E9
:100B800040014161606BA0B11B490165606BFFF7DB
:100B900095FB002810D0606B016DBDE870400847E0
:100BA000830610D58B060ED52046BDE8704000F0B8
:100BB00067B92046FFF798FF70BD2046FFF794FF06
:100BC0000020E06370BD030606D50B0604D5204661
:100BD000BDE8704000F0F6BA4006F3D54806F1D5FE
:100BE000D168204621F04001D160202184F83910DD
:100BF00000F0BDF870BD0000550E000870B504008F
:100C000004D094F83900002510B106E0012070BD31
:100C100084F83850204600F023F8242084F8390066
:100C20002068C16821F40051C160204600F074F9C9
:100C30002068016921F4904101612068416921F037
:100C40002A0141612068C16841F40051C160E56337
:100C5000202084F8390084F83A00002070BD00009C
:100C600010B586B0044614216846FFF7E1FA18492A
:100C70002068884229D11748016841F48021016029
:100C8000006800F48020059012481038016841F097
:100C9000080101600068694600F0080005904FF403
:100CA00040700090022001900120029003200390E8
:100CB000072004900848FFF713FB00221146272065
:100CC000FFF754FC2720FFF743FC06B010BD0000DF
:100CD0000048004040380240000C024090F83A3092
:100CE000202B22D1F9B1F2B190F83830012B1CD071
:100CF00081628285C2850021C163222280F83A2068
:100D000080F838100168CA6842F48072CA600168CD
:100D10004A6942F001024A610068C16841F020015D
:100D2000C160002070470120704702207047704763
:100D300090F83930202B18D1A9B1A2B190F83830F1
:100D4000012B12D001628284C2840021C16321225E
:100D500080F8392080F838100068C16841F08001BF
:100D6000C160002070470120704702207047704723
:100D7000FEE7FEE7704770477047FFF78FBB000044
:100D800030B593B030216846FFF752FA14210CA811
:100D9000FFF74EFA18480025016841F080510160C4
:100DA000006800F0805011901448016841F48041BF
:100DB00001600068022400F480401190012003903B
:100DC00010200490009406940820CDE90750542088
:100DD000CDE9090404200B906846FFF7E3FC0CA959
:100DE0000F2081E83100E002CDE90F0502210CA8B7
:100DF000FFF7EEFB13B030BD4038024000700040FA
:100E00001048016841F4700101600F48016841F029
:100E1000010101600C4A00210832116002680B4B8D
:100E20001A400260031D0A4A1A60026822F48022F6
:100E3000026005480C30016002495806803908609C
:100E40007047000088ED00E000380240FFFFF6FE2A
:100E50001030002410B5806B0021C185C184FFF7DC
:100E600043FE10BD0168CA6822F49072CA6001682E
:100E70004A6922F001024A61202180F83A10704745
:100E800010B590F83A10222901D0022010BD8168D7
:100E9000B1F5805F11D00169002901681FD0496850
:100EA00001F07F03816A4A1C82620B70C18D491E6A
:100EB0000904090CC18518D02BE00269816A002A57
:100EC0000268526805D0D2B20A80816A491C8162E8
:100ED000ECE7C2F308020A80816A891CF7E74A68D6
:100EE000816A4B1C83620A70E0E70168CA6822F0DD
:100EF0002002CA600168CA6822F48072CA60016870
:100F00004A6922F001024A61202180F83A10FFF775
:100F10000EFF002010BD00002DE9F04104460068DE
:100F20000169E26821F44051114301612169A0681F
:100F3000E26908436169114322680843D16849F2B4
:100F40000C6399430143D16020684169A26921F48F
:100F5000407111434161E2696425B2F5004F974841
:100F6000974922684FF032083FD08A4201D082422E
:100F70007CD1FFF7D5FB00EBC00101EB00106168ED
:100F80008900B0FBF1F6FFF7CBFB00EBC00101EBF2
:100F9000001061688900B0FBF1F0B0FBF5F06FF074
:100FA0001801484306EB800108EB0110B0FBF5F097
:100FB00000F0F006FFF7B4FB00EBC00101EB0010FE
:100FC00061688900B0FBF1F0B0FBF5F006EB0016AC
:100FD000FFF7A6FB00EBC00101EB00106168890080
:100FE000B0FBF1F7FFF79CFBD2E08A4201D08242CE
:100FF0003DD1FFF795FB00EBC00101EB00106168EC
:101000004900B0FBF1F0B0FBF5F00601FFF788FBFB
:1010100000EBC00101EB001061684900B0FBF1F783
:10102000FFF77EFB00EBC00101EB00106168490097
:10103000B0FBF1F0B0FBF5F06FF01801484307EB9F
:10104000800108EBC100B0FBF5F000F0F80006EB02
:101050004006FFF765FB00EBC00101EB0010616883
:101060004900B0FBF1F7FFF75BFB3CE055E0FFF711
:1010700047FB00EBC00101EB001061684900B0FBC9
:10108000F1F0B0FBF5F00601FFF73AFB00EBC00111
:1010900001EB001061684900B0FBF1F7FFF730FB8E
:1010A00000EBC00101EB001061684900B0FBF1F0FA
:1010B000B0FBF5F06FF01801484307EB800108EB37
:1010C000C100B0FBF5F000F0F80006EB4006FFF7BA
:1010D00017FB00EBC00101EB001061684900B0FB99
:1010E000F1F7FFF70DFB00EBC00101EB00106168A9
:1010F0004900B0FBF1F0B0FBF5F06FF01801484388
:1011000007EB800108EBC100B0FBF5F000F0070031
:10111000216830448860BDE8F081FFF7F1FA00EB08
:10112000C00101EB001061688900B0FBF1F6FFF728
:10113000E7FA00EBC00101EB001061688900B0FB29
:10114000F1F0B0FBF5F06FF01801484306EB8001B9
:1011500008EB0110B0FBF5F000F0F006FFF7D0FA55
:1011600000EBC00101EB001061688900B0FBF1F0F9
:10117000B0FBF5F006EB0016FFF7C2FA00EBC0017A
:1011800001EB001061688900B0FBF1F7FFF7B8FAD6
:1011900000EBC00101EB001061688900B0FBF1F0C9
:1011A000B0FBF5F06FF01801484307EB800108EB46
:1011B0000110B0FBF5F000F00F00A9E700140140AA
:1011C0000010014090F83910212901D00220704709
:1011D0008168B1F5805F016A0BD04A1C0262026827
:1011E00009785160C18C491E0904090CC1840ED0D4
:1011F00017E009880268C1F30801516001690029FC
:10120000016A02D0491C0162ECE7891CFBE7016816
:10121000CA6822F08002CA600068C16841F04001DB
:10122000C1600020704700000148FFF75FBC00006C
:1012300028000020FEE700000FB4054B10B503A9FD
:10124000044A029800F027F810BC5DF814FB000077
:101250006D130008100000200907090E002804DBA8
:1012600000F1E02080F80014704700F00F0000F15A
:10127000E02080F8141D704702E008C8121F08C162
:10128000002AFAD170477047002001E001C1121F07
:10129000002AFBD170472DE9F84F994692468846BF
:1012A0000546002706E025280AD051464A469047C1
:1012B0006D1C7F1C28780028F5D13846BDE8F88FD2
:1012C000002315F8011F18462E2915D115F8011F06
:1012D00004232A290DD06FF02F022978A1F13004C0
:1012E000092C09D800EB800002EB400008446D1C7B
:1012F000F3E758F8040B6D1C2A78002ADDD0632A26
:1013000007D0732A0FD0104651464A4690477F1C9B
:101310002AE018F8042B8DF8002000218DF8011028
:101320006E46012103E058F8046B4FF0FF315A0775
:101330004FF0000401D409E0641C84420BDA8C42B3
:10134000FADB325D002AF7D105E0641C8C42FCDB3D
:10135000305D0028F9D1274404E016F8010B51460E
:101360004A469047641EF8D26D1CA3E708490968F5
:10137000C90706D0064980390968CA074FF060419D
:1013800001D1704700BF0A68002AFBD0087070477F
:10139000800E00E01CB5FFF789F8FFF7F1FC194853
:1013A0000021026842F0080202600068164A00F05C
:1013B00008000090154802604FF41652C0E9012160
:1013C0000C22C160C0E904128161C161FFF716FC03
:1013D0000FA1D1E90001CDE900016846FEF733FF16
:1013E00082B269460948FFF7A3FC0849052214396F
:1013F0000648FFF773FC054A6946143A06A0FFF752
:101400001BFFE5E73038024000480040280000207C
:1014100048656C6C6F000000546578743A20257341
:101420002C2025730A0000000000000000000000CE
:10143000010203040607080900000000010203047A
:10144000601400080000002014000000781200085A
:1014500074140008140000205404000088120008CE
:101460000100000010000000000000000024F40053
:041470000000000078
:040000050800018965
:00000001FF
